{
    "contractName": "Migrations",
    "abi": [
        {
            "constant": true,
            "inputs": [],
            "name": "blockCount",
            "outputs": [
                {
                    "name": "",
                    "type": "uint256"
                }
            ],
            "payable": false,
            "stateMutability": "view",
            "type": "function"
        },
        {
            "constant": false,
            "inputs": [
                {
                    "name": "itemID",
                    "type": "bytes32"
                },
                {
                    "name": "password",
                    "type": "string"
                }
            ],
            "name": "checkout",
            "outputs": [],
            "payable": false,
            "stateMutability": "nonpayable",
            "type": "function"
        },
        {
            "constant": true,
            "inputs": [
                {
                    "name": "",
                    "type": "bytes32"
                }
            ],
            "name": "itemList",
            "outputs": [
                {
                    "name": "previousHash",
                    "type": "bytes32"
                },
                {
                    "name": "timeStamp",
                    "type": "uint64"
                },
                {
                    "name": "caseID",
                    "type": "bytes32"
                },
                {
                    "name": "itemID",
                    "type": "bytes32"
                },
                {
                    "name": "state",
                    "type": "bytes12"
                },
                {
                    "name": "creator",
                    "type": "bytes12"
                },
                {
                    "name": "owner",
                    "type": "bytes12"
                },
                {
                    "name": "length",
                    "type": "uint32"
                },
                {
                    "name": "data",
                    "type": "string"
                }
            ],
            "payable": false,
            "stateMutability": "view",
            "type": "function"
        },
        {
            "constant": false,
            "inputs": [
                {
                    "name": "itemID",
                    "type": "bytes32"
                },
                {
                    "name": "state",
                    "type": "bytes12"
                },
                {
                    "name": "password",
                    "type": "string"
                }
            ],
            "name": "remove",
            "outputs": [],
            "payable": false,
            "stateMutability": "nonpayable",
            "type": "function"
        },
        {
            "constant": true,
            "inputs": [],
            "name": "last_completed_migration",
            "outputs": [
                {
                    "name": "",
                    "type": "uint256"
                }
            ],
            "payable": false,
            "stateMutability": "view",
            "type": "function"
        },
        {
            "constant": true,
            "inputs": [
                {
                    "name": "",
                    "type": "bytes32"
                }
            ],
            "name": "itemIDExists",
            "outputs": [
                {
                    "name": "",
                    "type": "bool"
                }
            ],
            "payable": false,
            "stateMutability": "view",
            "type": "function"
        },
        {
            "constant": true,
            "inputs": [
                {
                    "name": "",
                    "type": "uint256"
                }
            ],
            "name": "itemName",
            "outputs": [
                {
                    "name": "",
                    "type": "bytes32"
                }
            ],
            "payable": false,
            "stateMutability": "view",
            "type": "function"
        },
        {
            "constant": false,
            "inputs": [
                {
                    "name": "case_id",
                    "type": "bytes32"
                },
                {
                    "name": "item_ids",
                    "type": "bytes32[]"
                },
                {
                    "name": "creator",
                    "type": "bytes12"
                },
                {
                    "name": "password",
                    "type": "string"
                }
            ],
            "name": "add",
            "outputs": [],
            "payable": false,
            "stateMutability": "nonpayable",
            "type": "function"
        },
        {
            "constant": true,
            "inputs": [],
            "name": "owner",
            "outputs": [
                {
                    "name": "",
                    "type": "address"
                }
            ],
            "payable": false,
            "stateMutability": "view",
            "type": "function"
        },
        {
            "constant": false,
            "inputs": [
                {
                    "name": "itemID",
                    "type": "bytes32"
                },
                {
                    "name": "password",
                    "type": "string"
                }
            ],
            "name": "checkin",
            "outputs": [],
            "payable": false,
            "stateMutability": "nonpayable",
            "type": "function"
        },
        {
            "constant": true,
            "inputs": [
                {
                    "name": "",
                    "type": "bytes32"
                }
            ],
            "name": "caseIDExists",
            "outputs": [
                {
                    "name": "",
                    "type": "bool"
                }
            ],
            "payable": false,
            "stateMutability": "view",
            "type": "function"
        },
        {
            "constant": false,
            "inputs": [],
            "name": "init",
            "outputs": [],
            "payable": false,
            "stateMutability": "nonpayable",
            "type": "function"
        },
        {
            "constant": true,
            "inputs": [
                {
                    "name": "",
                    "type": "bytes32"
                }
            ],
            "name": "checkedIn",
            "outputs": [
                {
                    "name": "",
                    "type": "bool"
                }
            ],
            "payable": false,
            "stateMutability": "view",
            "type": "function"
        },
        {
            "constant": true,
            "inputs": [
                {
                    "name": "",
                    "type": "uint256"
                }
            ],
            "name": "blocks",
            "outputs": [
                {
                    "name": "previousHash",
                    "type": "bytes32"
                },
                {
                    "name": "timeStamp",
                    "type": "uint64"
                },
                {
                    "name": "caseID",
                    "type": "bytes32"
                },
                {
                    "name": "itemID",
                    "type": "bytes32"
                },
                {
                    "name": "state",
                    "type": "bytes12"
                },
                {
                    "name": "creator",
                    "type": "bytes12"
                },
                {
                    "name": "owner",
                    "type": "bytes12"
                },
                {
                    "name": "length",
                    "type": "uint32"
                },
                {
                    "name": "data",
                    "type": "string"
                }
            ],
            "payable": false,
            "stateMutability": "view",
            "type": "function"
        },
        {
            "constant": false,
            "inputs": [
                {
                    "name": "completed",
                    "type": "uint256"
                }
            ],
            "name": "setCompleted",
            "outputs": [],
            "payable": false,
            "stateMutability": "nonpayable",
            "type": "function"
        },
        {
            "inputs": [],
            "payable": false,
            "stateMutability": "nonpayable",
            "type": "constructor"
        },
        {
            "anonymous": false,
            "inputs": [
                {
                    "indexed": false,
                    "name": "message",
                    "type": "bytes32"
                }
            ],
            "name": "LogString",
            "type": "event"
        }
    ],
    "bytecode": "608060405260008054600160a060020a0319163317815560045534801561002557600080fd5b50604080517f4c37364c000000000000000000000000000000000000000000000000000000006020808301919091528251808303600401815260248301845280519082012060009081526002808352848220805460ff1990811660019081179092557f5038305000000000000000000000000000000000000000000000000000000000604487015286516028818803018152604887018852805190860120845282855286842080548216831790557f413635410000000000000000000000000000000000000000000000000000000060688701528651604c818803018152606c87018852805190860120845282855286842080548216831790557f4536394500000000000000000000000000000000000000000000000000000000608c87015286516070818803018152609087018852805190860120845282855286842080548216831790557f433637430000000000000000000000000000000000000000000000000000000060b08701528651609481880301815260b490960187528551958501959095208352908352938120805484168517905560039091527f0117fec4dd8e6d6a909b0408227148b019c06a94848b76acec7dd9ed9e6e450d80548316841790557f44455354524f594544000000000000000000000000000000000000000000000090527f2e8cf1753093dddde13a7a2a6b20677bb112d3c4932bcbf5e36addfa58c3dd0f80549091169091179055612320806102466000396000f3fe6080604052600436106100da5763ffffffff7c010000000000000000000000000000000000000000000000000000000060003504166307225b4d81146100df5780630f4af809146101065780632701f90e146101c2578063304cad32146102d1578063445df0ac146103a7578063483454c4146103bc5780637310dc8a146103fa578063820305d0146104245780638da5cb5b14610581578063a27ce21f146105b2578063cad2e0cb1461066c578063e1c7392a14610696578063edeb7340146106ab578063f25b3f99146106d5578063fdacd576146106ff575b600080fd5b3480156100eb57600080fd5b506100f4610729565b60408051918252519081900360200190f35b34801561011257600080fd5b506101c06004803603604081101561012957600080fd5b8135919081019060408101602082013564010000000081111561014b57600080fd5b82018360208201111561015d57600080fd5b8035906020019184600183028401116401000000008311171561017f57600080fd5b91908080601f01602080910402602001604051908101604052809392919081815260200183838082843760009201919091525092955061072f945050505050565b005b3480156101ce57600080fd5b506101ec600480360360208110156101e557600080fd5b5035610c4f565b604080518a815267ffffffffffffffff8a166020808301919091529181018990526060810188905273ffffffffffffffffffffffffffffffffffffffff19808816608083015286811660a0830152851660c082015263ffffffff841660e0820152610120610100820181815284519183019190915283519192909161014084019185019080838360005b8381101561028e578181015183820152602001610276565b50505050905090810190601f1680156102bb5780820380516001836020036101000a031916815260200191505b509a505050505050505050505060405180910390f35b3480156102dd57600080fd5b506101c0600480360360608110156102f457600080fd5b81359173ffffffffffffffffffffffffffffffffffffffff196020820135169181019060608101604082013564010000000081111561033257600080fd5b82018360208201111561034457600080fd5b8035906020019184600183028401116401000000008311171561036657600080fd5b91908080601f016020809104026020016040519081016040528093929190818152602001838380828437600092019190915250929550610d4b945050505050565b3480156103b357600080fd5b506100f4611267565b3480156103c857600080fd5b506103e6600480360360208110156103df57600080fd5b503561126d565b604080519115158252519081900360200190f35b34801561040657600080fd5b506100f46004803603602081101561041d57600080fd5b5035611282565b34801561043057600080fd5b506101c06004803603608081101561044757600080fd5b8135919081019060408101602082013564010000000081111561046957600080fd5b82018360208201111561047b57600080fd5b8035906020019184602083028401116401000000008311171561049d57600080fd5b919080806020026020016040519081016040528093929190818152602001838360200280828437600092019190915250929573ffffffffffffffffffffffffffffffffffffffff1985351695909490935060408101925060200135905064010000000081111561050c57600080fd5b82018360208201111561051e57600080fd5b8035906020019184600183028401116401000000008311171561054057600080fd5b91908080601f016020809104026020016040519081016040528093929190818152602001838380828437600092019190915250929550611294945050505050565b34801561058d57600080fd5b50610596611910565b60408051600160a060020a039092168252519081900360200190f35b3480156105be57600080fd5b506101c0600480360360408110156105d557600080fd5b813591908101906040810160208201356401000000008111156105f757600080fd5b82018360208201111561060957600080fd5b8035906020019184600183028401116401000000008311171561062b57600080fd5b91908080601f01602080910402602001604051908101604052809392919081815260200183838082843760009201919091525092955061191f945050505050565b34801561067857600080fd5b506103e66004803603602081101561068f57600080fd5b5035611e33565b3480156106a257600080fd5b506101c0611e48565b3480156106b757600080fd5b506103e6600480360360208110156106ce57600080fd5b503561205c565b3480156106e157600080fd5b506101ec600480360360208110156106f857600080fd5b5035612071565b34801561070b57600080fd5b506101c06004803603602081101561072257600080fd5b5035612137565b60045481565b6040805183815290517f46fa7d763af8192cad75d3db8e208813256198e243419297141b409e5a9571199181900360200190a160008281526007602052604090205460ff1615156107ca576040805160e560020a62461bcd02815260206004820152601660248201527f4974656d20494420646f6573206e6f7420657869737400000000000000000000604482015290519081900360640190fd5b60026000826040516020018082805190602001908083835b602083106108015780518252601f1990920191602091820191016107e2565b6001836020036101000a03801982511681845116808217855250505050505090500191505060405160208183030381529060405280519060200120815260200190815260200160002060009054906101000a900460ff1615156108ae576040805160e560020a62461bcd02815260206004820152601060248201527f496e76616c69642070617373776f726400000000000000000000000000000000604482015290519081900360640190fd5b60008281526009602052604090205460ff161515610916576040805160e560020a62461bcd02815260206004820181905260248201527f4974656d206973206e6f7420696e206120434845434b4544494e207374617465604482015290519081900360640190fd5b600480546001908101918290556040805161012081019091529182911061093e5760006109d3565b60056000600160045403815260200190815260200160002060060160405160200180828054600181600116156101000203166002900480156109b75780601f106109955761010080835404028352918201916109b7565b820191906000526020600020905b8154815290600101906020018083116109a3575b5050915050604051602081830303815290604052805190602001205b81526020014267ffffffffffffffff168152602001600860008581526020019081526020016000206002015481526020018381526020017f434845434b45444f555400000000000000000000000000000000000000000000600160a060020a031916815260200160086000858152602001908152602001600020600401600c9054906101000a900460a060020a02600160a060020a03191681526020016008600085815260200190815260200160002060050160009054906101000a900460a060020a02600160a060020a03191681526020016040805190810160405280600b81526020016000805160206122d58339815191528152505163ffffffff1681526020016040805190810160405280600b81526020016000805160206122d58339815191528152508152506005600060045481526020019081526020016000206000820151816000015560208201518160010160006101000a81548167ffffffffffffffff021916908367ffffffffffffffff160217905550604082015181600201556060820151816003015560808201518160040160006101000a8154816bffffffffffffffffffffffff021916908360a060020a9004021790555060a082015181600401600c6101000a8154816bffffffffffffffffffffffff021916908360a060020a9004021790555060c08201518160050160006101000a8154816bffffffffffffffffffffffff021916908360a060020a9004021790555060e082015181600501600c6101000a81548163ffffffff021916908363ffffffff160217905550610100820151816006019080519060200190610c339291906121c4565b505050600091825250600960205260409020805460ff19169055565b60086020908152600091825260409182902080546001808301546002808501546003860154600487015460058801546006890180548c516101009982161599909902600019011695909504601f81018b90048b0288018b01909b528a8752969967ffffffffffffffff909516989297919660a060020a808302976c0100000000000000000000000093849004820297918302969390920463ffffffff1694919291830182828015610d415780601f10610d1657610100808354040283529160200191610d41565b820191906000526020600020905b815481529060010190602001808311610d2457829003601f168201915b5050505050905089565b60008381526007602052604090205460ff161515610db3576040805160e560020a62461bcd02815260206004820152601660248201527f4974656d20494420646f6573206e6f7420657869737400000000000000000000604482015290519081900360640190fd5b60405160200180807f4336374300000000000000000000000000000000000000000000000000000000815250600401905060405160208183030381529060405280519060200120816040516020018082805190602001908083835b60208310610e2d5780518252601f199092019160209182019101610e0e565b6001836020036101000a03801982511681845116808217855250505050505090500191505060405160208183030381529060405280519060200120141515610ebf576040805160e560020a62461bcd02815260206004820152601060248201527f496e76616c69642070617373776f726400000000000000000000000000000000604482015290519081900360640190fd5b60008381526009602052604090205460ff161515610f4d576040805160e560020a62461bcd02815260206004820152602260248201527f4974656d20697320616c726561647920696e20612072656d6f7665642073746160448201527f7465000000000000000000000000000000000000000000000000000000000000606482015290519081900360840190fd5b6004805460019081019182905560408051610120810190915291829110610f7557600061100a565b6005600060016004540381526020019081526020016000206006016040516020018082805460018160011615610100020316600290048015610fee5780601f10610fcc576101008083540402835291820191610fee565b820191906000526020600020905b815481529060010190602001808311610fda575b5050915050604051602081830303815290604052805190602001205b81526020014267ffffffffffffffff1681526020016008600086815260200190815260200160002060020154815260200184815260200183600160a060020a031916815260200160086000868152602001908152602001600020600401600c9054906101000a900460a060020a02600160a060020a03191681526020016008600086815260200190815260200160002060050160009054906101000a900460a060020a02600160a060020a03191681526020016040805190810160405280600b81526020016000805160206122d58339815191528152505163ffffffff1681526020016040805190810160405280600b81526020016000805160206122d58339815191528152508152506005600060045481526020019081526020016000206000820151816000015560208201518160010160006101000a81548167ffffffffffffffff021916908367ffffffffffffffff160217905550604082015181600201556060820151816003015560808201518160040160006101000a8154816bffffffffffffffffffffffff021916908360a060020a9004021790555060a082015181600401600c6101000a8154816bffffffffffffffffffffffff021916908360a060020a9004021790555060c08201518160050160006101000a8154816bffffffffffffffffffffffff021916908360a060020a9004021790555060e082015181600501600c6101000a81548163ffffffff021916908363ffffffff16021790555061010082015181600601908051906020019061124a9291906121c4565b50505060009283525050600760205260409020805460ff19169055565b60015481565b60076020526000908152604090205460ff1681565b600a6020526000908152604090205481565b60008481526006602052604090205460ff16156112fb576040805160e560020a62461bcd02815260206004820152601960248201527f3e204361736520494420616c7265616479206578697374732100000000000000604482015290519081900360640190fd5b6040805185815290517f46fa7d763af8192cad75d3db8e208813256198e243419297141b409e5a9571199181900360200190a160405160200180807f4336374300000000000000000000000000000000000000000000000000000000815250600401905060405160208183030381529060405280519060200120816040516020018082805190602001908083835b602083106113a85780518252601f199092019160209182019101611389565b6001836020036101000a0380198251168184511680821785525050505050509050019150506040516020818303038152906040528051906020012014151561143a576040805160e560020a62461bcd02815260206004820152601260248201527f3e20496e76616c69642070617373776f72640000000000000000000000000000604482015290519081900360640190fd5b60005b83518110156118f15760076000858381518110151561145857fe5b602090810290910181015182528101919091526040016000205460ff1615156118e95760048054600190810191829055604080516101208101909152918291106114a3576000611538565b600560006001600454038152602001908152602001600020600601604051602001808280546001816001161561010002031660029004801561151c5780601f106114fa57610100808354040283529182019161151c565b820191906000526020600020905b815481529060010190602001808311611508575b5050915050604051602081830303815290604052805190602001205b81526020014267ffffffffffffffff168152602001868152602001858381518110151561156157fe5b60209081029190910181015182527f434845434b4544494e00000000000000000000000000000000000000000000008282015273ffffffffffffffffffffffffffffffffffffffff1986166040808401919091526000606080850182905282518084018452600a8082527f4974656d206164646564000000000000000000000000000000000000000000009186018290526080808801829052855180870187529182528187019290925260a096870152600480548452600580875293859020885181558887015160018201805467ffffffffffffffff191667ffffffffffffffff9092169190911790559488015160028601559187015160038501558601519083018054958701516bffffffffffffffffffffffff1996871660a060020a938490041777ffffffffffffffffffffffff00000000000000000000000019166c010000000000000000000000009184900482021790915560c0870151928401805460e0890151971692909304919091176fffffffff000000000000000000000000191663ffffffff9095160293909317909255610100830151805161170b92600685019201906121c4565b50905050600160076000868481518110151561172357fe5b90602001906020020151815260200190815260200160002060006101000a81548160ff021916908315150217905550600160096000868481518110151561176657fe5b90602001906020020151815260200190815260200160002060006101000a81548160ff0219169083151502179055506005600060045481526020019081526020016000206008600086848151811015156117bc57fe5b6020908102909101810151825281019190915260400160002081548155600180830154818301805467ffffffffffffffff191667ffffffffffffffff909216919091179055600280840154818401556003808501549084015560048085018054918501805460a060020a9384028490046bffffffffffffffffffffffff199182161780835592546c01000000000000000000000000908190048502859004810277ffffffffffffffffffffffff0000000000000000000000001990941693909317909155600580880180549188018054928602959095049190921617808455905463ffffffff90839004169091026fffffffff00000000000000000000000019909116179055600680850180546118e59492860193919281161561010002600019011604612242565b5050505b60010161143d565b505050600091825250600660205260409020805460ff19166001179055565b600054600160a060020a031681565b60008281526007602052604090205460ff161515611987576040805160e560020a62461bcd02815260206004820152601660248201527f4974656d20494420646f6573206e6f7420657869737400000000000000000000604482015290519081900360640190fd5b60026000826040516020018082805190602001908083835b602083106119be5780518252601f19909201916020918201910161199f565b6001836020036101000a03801982511681845116808217855250505050505090500191505060405160208183030381529060405280519060200120815260200190815260200160002060009054906101000a900460ff161515611a6b576040805160e560020a62461bcd02815260206004820152601060248201527f496e76616c69642070617373776f726400000000000000000000000000000000604482015290519081900360640190fd5b60008281526009602052604090205460ff1615611af7576040805160e560020a62461bcd028152602060048201526024808201527f4974656d20697320616c726561647920696e206120434845434b4544494e207360448201527f7461746500000000000000000000000000000000000000000000000000000000606482015290519081900360840190fd5b6004805460019081019182905560408051610120810190915291829110611b1f576000611bb4565b6005600060016004540381526020019081526020016000206006016040516020018082805460018160011615610100020316600290048015611b985780601f10611b76576101008083540402835291820191611b98565b820191906000526020600020905b815481529060010190602001808311611b84575b5050915050604051602081830303815290604052805190602001205b81526020014267ffffffffffffffff168152602001600860008581526020019081526020016000206002015481526020018381526020017f434845434b4544494e0000000000000000000000000000000000000000000000600160a060020a031916815260200160086000858152602001908152602001600020600401600c9054906101000a900460a060020a02600160a060020a03191681526020016008600085815260200190815260200160002060050160009054906101000a900460a060020a02600160a060020a03191681526020016040805190810160405280600b81526020016000805160206122d58339815191528152505163ffffffff1681526020016040805190810160405280600b81526020016000805160206122d58339815191528152508152506005600060045481526020019081526020016000206000820151816000015560208201518160010160006101000a81548167ffffffffffffffff021916908367ffffffffffffffff160217905550604082015181600201556060820151816003015560808201518160040160006101000a8154816bffffffffffffffffffffffff021916908360a060020a9004021790555060a082015181600401600c6101000a8154816bffffffffffffffffffffffff021916908360a060020a9004021790555060c08201518160050160006101000a8154816bffffffffffffffffffffffff021916908360a060020a9004021790555060e082015181600501600c6101000a81548163ffffffff021916908363ffffffff160217905550610100820151816006019080519060200190611e149291906121c4565b505050600091825250600960205260409020805460ff19166001179055565b60066020526000908152604090205460ff1681565b60045415611ec6576040805160e560020a62461bcd02815260206004820152602960248201527f426c6f636b636861696e2066696c6520666f756e64207769746820494e49544960448201527f414c20626c6f636b2e0000000000000000000000000000000000000000000000606482015290519081900360840190fd5b600480546001908101808355604080516101208101825260008082526020808301828152838501838152606085018481527f494e495449414c000000000000000000000000000000000000000000000000006080870190815260a0870186815260c08801878152600e60e08a019081528a51808c018c52600d81527f496e697469616c20626c6f636b00000000000000000000000000000000000000818a01526101008b019081529b895260058089529a9098208951815595519b8601805467ffffffffffffffff191667ffffffffffffffff909d169c909c17909b55925160028501559051600384015551988201805491516bffffffffffffffffffffffff1992831660a060020a9b8c90041777ffffffffffffffffffffffff00000000000000000000000019166c01000000000000000000000000918c90048202179091559751958201805494519490911698909504979097176fffffffff000000000000000000000000191663ffffffff9092169095021790915590518051919392612057926006850192909101906121c4565b505050565b60096020526000908152604090205460ff1681565b600560208181526000928352604092839020805460018083015460028085015460038601546004870154988701546006880180548c516101009882161598909802600019011694909404601f81018a90048a0287018a01909b528a8652959967ffffffffffffffff909416989197909660a060020a808402976c01000000000000000000000000948590048202979181029694900463ffffffff169491939092830182828015610d415780601f10610d1657610100808354040283529160200191610d41565b600054600160a060020a031633146121bf576040805160e560020a62461bcd02815260206004820152603360248201527f546869732066756e6374696f6e206973207265737472696374656420746f207460448201527f686520636f6e74726163742773206f776e657200000000000000000000000000606482015290519081900360840190fd5b600155565b828054600181600116156101000203166002900490600052602060002090601f016020900481019282601f1061220557805160ff1916838001178555612232565b82800160010185558215612232579182015b82811115612232578251825591602001919060010190612217565b5061223e9291506122b7565b5090565b828054600181600116156101000203166002900490600052602060002090601f016020900481019282601f1061227b5780548555612232565b8280016001018555821561223257600052602060002091601f016020900482015b8281111561223257825482559160010191906001019061229c565b6122d191905b8082111561223e57600081556001016122bd565b9056fe436865636b6564206f7574000000000000000000000000000000000000000000a165627a7a723058208ce0af09ad8ddf314d93ea9a3592216319133065f5b7def380dadec8b21df13c0029",
    "sourcePath": "c:/Users/mh916/OneDrive/Desktop/CSE469Final/contracts/Migrations.sol",
    "compiler": {
        "name": "solc",
        "version": "0.5.0+commit.1d4f565a"
    },
    "functionHashes": {
        "add(bytes32,bytes32[],bytes12,string)": "820305d0",
        "blockCount()": "07225b4d",
        "blocks(uint256)": "f25b3f99",
        "caseIDExists(bytes32)": "cad2e0cb",
        "checkedIn(bytes32)": "edeb7340",
        "checkin(bytes32,string)": "a27ce21f",
        "checkout(bytes32,string)": "0f4af809",
        "init()": "e1c7392a",
        "itemIDExists(bytes32)": "483454c4",
        "itemList(bytes32)": "2701f90e",
        "itemName(uint256)": "7310dc8a",
        "last_completed_migration()": "445df0ac",
        "owner()": "8da5cb5b",
        "remove(bytes32,bytes12,string)": "304cad32",
        "setCompleted(uint256)": "fdacd576"
    },
    "gasEstimates": {
        "creation": {
            "codeDepositCost": "1798400",
            "executionCost": "169660",
            "totalCost": "1968060"
        },
        "external": {
            "add(bytes32,bytes32[],bytes12,string)": "infinite",
            "blockCount()": "384",
            "blocks(uint256)": "infinite",
            "caseIDExists(bytes32)": "724",
            "checkedIn(bytes32)": "768",
            "checkin(bytes32,string)": "infinite",
            "checkout(bytes32,string)": "infinite",
            "init()": "infinite",
            "itemIDExists(bytes32)": "614",
            "itemList(bytes32)": "infinite",
            "itemName(uint256)": "624",
            "last_completed_migration()": "472",
            "owner()": "713",
            "remove(bytes32,bytes12,string)": "infinite",
            "setCompleted(uint256)": "20780"
        }
    }
}