{
  "contractName": "chainOfCustody",
  "abi": [
    {
      "constant": true,
      "inputs": [],
      "name": "TaskCount",
      "outputs": [
        {
          "name": "",
          "type": "uint256"
        }
      ],
      "payable": false,
      "stateMutability": "view",
      "type": "function",
      "signature": "0xbbba4865"
    },
    {
      "constant": true,
      "inputs": [],
      "name": "caseCount",
      "outputs": [
        {
          "name": "",
          "type": "uint256"
        }
      ],
      "payable": false,
      "stateMutability": "view",
      "type": "function",
      "signature": "0xda2d7e95"
    }
  ],
  "bytecode": "0x608060405260008055600060015534801561001957600080fd5b5060d6806100286000396000f3fe6080604052600436106049576000357c0100000000000000000000000000000000000000000000000000000000900463ffffffff168063bbba486514604e578063da2d7e95146076575b600080fd5b348015605957600080fd5b506060609e565b6040518082815260200191505060405180910390f35b348015608157600080fd5b50608860a4565b6040518082815260200191505060405180910390f35b60005481565b6001548156fea165627a7a723058208b9283ccf574fd9917862ad3181afea327afce61696ff4f7f89e1c7e4bf56f360029",
  "source": "pragma solidity ^0.5.0;\r\n\r\ncontract chainOfCustody {\r\n    uint public TaskCount = 0;\r\n    uint public caseCount = 0;\r\n}",
  "sourcePath": "C:/Users/mh916/OneDrive/Desktop/CSE469Final/contracts/chainOfCustody.sol",
  "compiler": {
    "name": "solc",
    "version": "0.5.0+commit.1d4f565a.Emscripten.clang"
  },
  "schemaVersion": "3.0.1",
  "updatedAt": "2024-12-03T02:26:04.521Z",
  "devdoc": {
    "methods": {}
  },
  "userdoc": {
    "methods": {}
  }
}