{
  "contractName": "Migrations",
  "abi": [
    {
      "constant": true,
      "inputs": [],
      "name": "blockCount",
      "outputs": [
        {
          "name": "",
          "type": "uint256"
        }
      ],
      "payable": false,
      "stateMutability": "view",
      "type": "function",
      "signature": "0x07225b4d"
    },
    {
      "constant": true,
      "inputs": [
        {
          "name": "",
          "type": "bytes32"
        }
      ],
      "name": "itemList",
      "outputs": [
        {
          "name": "previousHash",
          "type": "bytes32"
        },
        {
          "name": "timeStamp",
          "type": "uint64"
        },
        {
          "name": "caseID",
          "type": "bytes32"
        },
        {
          "name": "itemID",
          "type": "bytes32"
        },
        {
          "name": "state",
          "type": "bytes12"
        },
        {
          "name": "creator",
          "type": "bytes12"
        },
        {
          "name": "owner",
          "type": "bytes12"
        },
        {
          "name": "length",
          "type": "uint32"
        },
        {
          "name": "data",
          "type": "string"
        }
      ],
      "payable": false,
      "stateMutability": "view",
      "type": "function",
      "signature": "0x2701f90e"
    },
    {
      "constant": true,
      "inputs": [],
      "name": "last_completed_migration",
      "outputs": [
        {
          "name": "",
          "type": "uint256"
        }
      ],
      "payable": false,
      "stateMutability": "view",
      "type": "function",
      "signature": "0x445df0ac"
    },
    {
      "constant": true,
      "inputs": [
        {
          "name": "",
          "type": "bytes32"
        }
      ],
      "name": "itemIDExists",
      "outputs": [
        {
          "name": "",
          "type": "bool"
        }
      ],
      "payable": false,
      "stateMutability": "view",
      "type": "function",
      "signature": "0x483454c4"
    },
    {
      "constant": true,
      "inputs": [
        {
          "name": "",
          "type": "uint256"
        }
      ],
      "name": "itemName",
      "outputs": [
        {
          "name": "",
          "type": "bytes32"
        }
      ],
      "payable": false,
      "stateMutability": "view",
      "type": "function",
      "signature": "0x7310dc8a"
    },
    {
      "constant": true,
      "inputs": [
        {
          "name": "",
          "type": "bytes32"
        }
      ],
      "name": "isRemoved",
      "outputs": [
        {
          "name": "",
          "type": "bool"
        }
      ],
      "payable": false,
      "stateMutability": "view",
      "type": "function",
      "signature": "0x81a77720"
    },
    {
      "constant": true,
      "inputs": [],
      "name": "owner",
      "outputs": [
        {
          "name": "",
          "type": "address"
        }
      ],
      "payable": false,
      "stateMutability": "view",
      "type": "function",
      "signature": "0x8da5cb5b"
    },
    {
      "constant": true,
      "inputs": [
        {
          "name": "",
          "type": "bytes32"
        }
      ],
      "name": "caseIDExists",
      "outputs": [
        {
          "name": "",
          "type": "bool"
        }
      ],
      "payable": false,
      "stateMutability": "view",
      "type": "function",
      "signature": "0xcad2e0cb"
    },
    {
      "constant": true,
      "inputs": [
        {
          "name": "",
          "type": "bytes32"
        }
      ],
      "name": "checkedIn",
      "outputs": [
        {
          "name": "",
          "type": "bool"
        }
      ],
      "payable": false,
      "stateMutability": "view",
      "type": "function",
      "signature": "0xedeb7340"
    },
    {
      "constant": true,
      "inputs": [
        {
          "name": "",
          "type": "uint256"
        }
      ],
      "name": "blocks",
      "outputs": [
        {
          "name": "previousHash",
          "type": "bytes32"
        },
        {
          "name": "timeStamp",
          "type": "uint64"
        },
        {
          "name": "caseID",
          "type": "bytes32"
        },
        {
          "name": "itemID",
          "type": "bytes32"
        },
        {
          "name": "state",
          "type": "bytes12"
        },
        {
          "name": "creator",
          "type": "bytes12"
        },
        {
          "name": "owner",
          "type": "bytes12"
        },
        {
          "name": "length",
          "type": "uint32"
        },
        {
          "name": "data",
          "type": "string"
        }
      ],
      "payable": false,
      "stateMutability": "view",
      "type": "function",
      "signature": "0xf25b3f99"
    },
    {
      "inputs": [],
      "payable": false,
      "stateMutability": "nonpayable",
      "type": "constructor",
      "signature": "constructor"
    },
    {
      "anonymous": false,
      "inputs": [
        {
          "indexed": false,
          "name": "message",
          "type": "bytes32"
        }
      ],
      "name": "LogString",
      "type": "event",
      "signature": "0x46fa7d763af8192cad75d3db8e208813256198e243419297141b409e5a957119"
    },
    {
      "constant": false,
      "inputs": [
        {
          "name": "completed",
          "type": "uint256"
        }
      ],
      "name": "setCompleted",
      "outputs": [],
      "payable": false,
      "stateMutability": "nonpayable",
      "type": "function",
      "signature": "0xfdacd576"
    },
    {
      "constant": false,
      "inputs": [],
      "name": "init",
      "outputs": [],
      "payable": false,
      "stateMutability": "nonpayable",
      "type": "function",
      "signature": "0xe1c7392a"
    },
    {
      "constant": true,
      "inputs": [
        {
          "name": "password",
          "type": "string"
        }
      ],
      "name": "validPassword",
      "outputs": [
        {
          "name": "",
          "type": "bool"
        }
      ],
      "payable": false,
      "stateMutability": "pure",
      "type": "function",
      "signature": "0x55a4bccb"
    },
    {
      "constant": true,
      "inputs": [
        {
          "name": "password",
          "type": "string"
        }
      ],
      "name": "validPasswords",
      "outputs": [
        {
          "name": "",
          "type": "bool"
        }
      ],
      "payable": false,
      "stateMutability": "view",
      "type": "function",
      "signature": "0xec2d5d6c"
    },
    {
      "constant": false,
      "inputs": [
        {
          "name": "case_id",
          "type": "bytes32"
        },
        {
          "name": "item_ids",
          "type": "bytes32[]"
        },
        {
          "name": "creator",
          "type": "bytes12"
        },
        {
          "name": "password",
          "type": "string"
        }
      ],
      "name": "add",
      "outputs": [],
      "payable": false,
      "stateMutability": "nonpayable",
      "type": "function",
      "signature": "0x820305d0"
    },
    {
      "constant": false,
      "inputs": [
        {
          "name": "itemID",
          "type": "bytes32"
        },
        {
          "name": "password",
          "type": "string"
        }
      ],
      "name": "checkout",
      "outputs": [],
      "payable": false,
      "stateMutability": "nonpayable",
      "type": "function",
      "signature": "0x0f4af809"
    },
    {
      "constant": false,
      "inputs": [
        {
          "name": "itemID",
          "type": "bytes32"
        },
        {
          "name": "password",
          "type": "string"
        }
      ],
      "name": "checkin",
      "outputs": [],
      "payable": false,
      "stateMutability": "nonpayable",
      "type": "function",
      "signature": "0xa27ce21f"
    },
    {
      "constant": false,
      "inputs": [
        {
          "name": "itemID",
          "type": "bytes32"
        },
        {
          "name": "state",
          "type": "bytes12"
        },
        {
          "name": "password",
          "type": "string"
        }
      ],
      "name": "remove",
      "outputs": [],
      "payable": false,
      "stateMutability": "nonpayable",
      "type": "function",
      "signature": "0x304cad32"
    },
    {
      "constant": true,
      "inputs": [],
      "name": "verify",
      "outputs": [
        {
          "name": "",
          "type": "bool"
        }
      ],
      "payable": false,
      "stateMutability": "view",
      "type": "function",
      "signature": "0xfc735e99"
    }
  ],
  "bytecode": "0x608060405260008054600160a060020a0319163317815560045534801561002557600080fd5b50604080517f4c37364c000000000000000000000000000000000000000000000000000000006020808301919091528251808303600401815260248301845280519082012060009081526002808352848220805460ff1990811660019081179092557f5038305000000000000000000000000000000000000000000000000000000000604487015286516028818803018152604887018852805190860120845282855286842080548216831790557f413635410000000000000000000000000000000000000000000000000000000060688701528651604c818803018152606c87018852805190860120845282855286842080548216831790557f4536394500000000000000000000000000000000000000000000000000000000608c87015286516070818803018152609087018852805190860120845282855286842080548216831790557f433637430000000000000000000000000000000000000000000000000000000060b08701528651609481880301815260b490960187528551958501959095208352908352938120805484168517905560039091527f0117fec4dd8e6d6a909b0408227148b019c06a94848b76acec7dd9ed9e6e450d80548316841790557f2e8cf1753093dddde13a7a2a6b20677bb112d3c4932bcbf5e36addfa58c3dd0f80548316841790557f52454c454153454400000000000000000000000000000000000000000000000090527f82015f819d8df6e7a9b07c02849b69e5a7206e8262f4050ea5ebdfb5bae324e180549091169091179055612cf38061026f6000396000f3fe6080604052600436106101065763ffffffff7c010000000000000000000000000000000000000000000000000000000060003504166307225b4d811461010b5780630f4af809146101325780632701f90e146101ee578063304cad32146102f0578063445df0ac146103b9578063483454c4146103ce57806355a4bccb1461040c5780637310dc8a146104bf57806381a77720146104e9578063820305d0146105135780638da5cb5b14610663578063a27ce21f14610694578063cad2e0cb1461074e578063e1c7392a14610778578063ec2d5d6c1461078d578063edeb734014610840578063f25b3f991461086a578063fc735e9914610894578063fdacd576146108a9575b600080fd5b34801561011757600080fd5b506101206108d3565b60408051918252519081900360200190f35b34801561013e57600080fd5b506101ec6004803603604081101561015557600080fd5b8135919081019060408101602082013564010000000081111561017757600080fd5b82018360208201111561018957600080fd5b803590602001918460018302840111640100000000831117156101ab57600080fd5b91908080601f0160208091040260200160405190810160405280939291908181526020018383808284376000920191909152509295506108d9945050505050565b005b3480156101fa57600080fd5b506102186004803603602081101561021157600080fd5b5035610ed1565b604080518a815267ffffffffffffffff8a1660208083019190915291810189905260608101889052600160a060020a0319808816608083015286811660a0830152851660c082015263ffffffff841660e0820152610120610100820181815284519183019190915283519192909161014084019185019080838360005b838110156102ad578181015183820152602001610295565b50505050905090810190601f1680156102da5780820380516001836020036101000a031916815260200191505b509a505050505050505050505060405180910390f35b3480156102fc57600080fd5b506101ec6004803603606081101561031357600080fd5b813591600160a060020a03196020820135169181019060608101604082013564010000000081111561034457600080fd5b82018360208201111561035657600080fd5b8035906020019184600183028401116401000000008311171561037857600080fd5b91908080601f016020809104026020016040519081016040528093929190818152602001838380828437600092019190915250929550610fc4945050505050565b3480156103c557600080fd5b50610120611607565b3480156103da57600080fd5b506103f8600480360360208110156103f157600080fd5b503561160d565b604080519115158252519081900360200190f35b34801561041857600080fd5b506103f86004803603602081101561042f57600080fd5b81019060208101813564010000000081111561044a57600080fd5b82018360208201111561045c57600080fd5b8035906020019184600183028401116401000000008311171561047e57600080fd5b91908080601f016020809104026020016040519081016040528093929190818152602001838380828437600092019190915250929550611622945050505050565b3480156104cb57600080fd5b50610120600480360360208110156104e257600080fd5b50356116e1565b3480156104f557600080fd5b506103f86004803603602081101561050c57600080fd5b50356116f3565b34801561051f57600080fd5b506101ec6004803603608081101561053657600080fd5b8135919081019060408101602082013564010000000081111561055857600080fd5b82018360208201111561056a57600080fd5b8035906020019184602083028401116401000000008311171561058c57600080fd5b9190808060200260200160405190810160405280939291908181526020018383602002808284376000920191909152509295600160a060020a03198535169590949093506040810192506020013590506401000000008111156105ee57600080fd5b82018360208201111561060057600080fd5b8035906020019184600183028401116401000000008311171561062257600080fd5b91908080601f016020809104026020016040519081016040528093929190818152602001838380828437600092019190915250929550611708945050505050565b34801561066f57600080fd5b50610678611ece565b60408051600160a060020a039092168252519081900360200190f35b3480156106a057600080fd5b506101ec600480360360408110156106b757600080fd5b813591908101906040810160208201356401000000008111156106d957600080fd5b8201836020820111156106eb57600080fd5b8035906020019184600183028401116401000000008311171561070d57600080fd5b91908080601f016020809104026020016040519081016040528093929190818152602001838380828437600092019190915250929550611edd945050505050565b34801561075a57600080fd5b506103f86004803603602081101561077157600080fd5b50356124c8565b34801561078457600080fd5b506101ec6124dd565b34801561079957600080fd5b506103f8600480360360208110156107b057600080fd5b8101906020810181356401000000008111156107cb57600080fd5b8201836020820111156107dd57600080fd5b803590602001918460018302840111640100000000831117156107ff57600080fd5b91908080601f0160208091040260200160405190810160405280939291908181526020018383808284376000920191909152509295506126ea945050505050565b34801561084c57600080fd5b506103f86004803603602081101561086357600080fd5b5035612775565b34801561087657600080fd5b506102186004803603602081101561088d57600080fd5b503561278a565b3480156108a057600080fd5b506103f8612847565b3480156108b557600080fd5b506101ec600480360360208110156108cc57600080fd5b503561299b565b60045481565b60008281526007602052604090205460ff161515610941576040805160e560020a62461bcd02815260206004820152601660248201527f4974656d20494420646f6573206e6f7420657869737400000000000000000000604482015290519081900360640190fd5b60026000826040516020018082805190602001908083835b602083106109785780518252601f199092019160209182019101610959565b6001836020036101000a03801982511681845116808217855250505050505090500191505060405160208183030381529060405280519060200120815260200190815260200160002060009054906101000a900460ff161515610a25576040805160e560020a62461bcd02815260206004820152601060248201527f496e76616c69642070617373776f726400000000000000000000000000000000604482015290519081900360640190fd5b60008281526009602052604090205460ff161515610a8d576040805160e560020a62461bcd02815260206004820181905260248201527f4974656d206973206e6f7420696e206120434845434b4544494e207374617465604482015290519081900360640190fd5b6000828152600a602052604090205460ff1615610af4576040805160e560020a62461bcd02815260206004820152601d60248201527f4974656d2068617320616c7265616479206265656e2072656d6f766564000000604482015290519081900360640190fd5b61012060405190810160405280600454600014610c4957600480546000199081016000908152600560208181526040928390208351610120810185528154815260018281015467ffffffffffffffff1682850152600280840154838801526003840154606084015297830154600160a060020a031960a060020a80830282166080860152606060020a928390048102821660a0860152968501549687021660c084015263ffffffff95049490941660e08201526006820180548651601f9682161561010090810290990190911698909804948501849004840288018401909552838752610c449690959194918601939092830182828015610c365780601f10610c0b57610100808354040283529160200191610c36565b820191906000526020600020905b815481529060010190602001808311610c1957829003601f168201915b505050505081525050612a28565b610c4c565b60005b81526020014267ffffffffffffffff168152602001600860008581526020019081526020016000206002015481526020018381526020017f434845434b45444f555400000000000000000000000000000000000000000000600160a060020a031916815260200160086000858152602001908152602001600020600401600c9054906101000a900460a060020a02600160a060020a03191681526020016008600085815260200190815260200160002060050160009054906101000a900460a060020a02600160a060020a03191681526020016040805190810160405280600b8152602001600080516020612ca88339815191528152505163ffffffff1681526020016040805190810160405280600b8152602001600080516020612ca88339815191528152508152506005600060045481526020019081526020016000206000820151816000015560208201518160010160006101000a81548167ffffffffffffffff021916908367ffffffffffffffff160217905550604082015181600201556060820151816003015560808201518160040160006101000a8154816bffffffffffffffffffffffff021916908360a060020a9004021790555060a082015181600401600c6101000a8154816bffffffffffffffffffffffff021916908360a060020a9004021790555060c08201518160050160006101000a8154816bffffffffffffffffffffffff021916908360a060020a9004021790555060e082015181600501600c6101000a81548163ffffffff021916908363ffffffff160217905550610100820151816006019080519060200190610eac929190612b9a565b505060048054600101905550506000908152600960205260409020805460ff19169055565b60086020908152600091825260409182902080546001808301546002808501546003860154600487015460058801546006890180548c516101009982161599909902600019011695909504601f81018b90048b0288018b01909b528a8752969967ffffffffffffffff909516989297919660a060020a80830297606060020a93849004820297918302969390920463ffffffff1694919291830182828015610fba5780601f10610f8f57610100808354040283529160200191610fba565b820191906000526020600020905b815481529060010190602001808311610f9d57829003601f168201915b5050505050905089565b60008381526007602052604090205460ff16151561102c576040805160e560020a62461bcd02815260206004820152601660248201527f4974656d20494420646f6573206e6f7420657869737400000000000000000000604482015290519081900360640190fd5b60405160200180807f4336374300000000000000000000000000000000000000000000000000000000815250600401905060405160208183030381529060405280519060200120816040516020018082805190602001908083835b602083106110a65780518252601f199092019160209182019101611087565b6001836020036101000a03801982511681845116808217855250505050505090500191505060405160208183030381529060405280519060200120141515611138576040805160e560020a62461bcd02815260206004820152601060248201527f496e76616c69642070617373776f726400000000000000000000000000000000604482015290519081900360640190fd5b60008381526009602052604090205460ff1615156111a0576040805160e560020a62461bcd02815260206004820152601360248201527f4974656d206973206e6f7420434845434b494e00000000000000000000000000604482015290519081900360640190fd5b600160a060020a0319821660009081526003602052604090205460ff161515611213576040805160e560020a62461bcd02815260206004820152601360248201527f526561736f6e206973206e6f742076616c696400000000000000000000000000604482015290519081900360640190fd5b6000838152600a602052604090205460ff161561127a576040805160e560020a62461bcd02815260206004820152601d60248201527f4974656d2068617320616c7265616479206265656e2072656d6f766564000000604482015290519081900360640190fd5b6101206040519081016040528060045460001461139657600480546000199081016000908152600560208181526040928390208351610120810185528154815260018281015467ffffffffffffffff1682850152600280840154838801526003840154606084015297830154600160a060020a031960a060020a80830282166080860152606060020a928390048102821660a0860152968501549687021660c084015263ffffffff95049490941660e08201526006820180548651601f96821615610100908102909901909116989098049485018490048402880184019095528387526113919690959194918601939092830182828015610c365780601f10610c0b57610100808354040283529160200191610c36565b611399565b60005b81526020014267ffffffffffffffff1681526020016008600086815260200190815260200160002060020154815260200184815260200183600160a060020a031916815260200160086000868152602001908152602001600020600401600c9054906101000a900460a060020a02600160a060020a03191681526020016008600086815260200190815260200160002060050160009054906101000a900460a060020a02600160a060020a03191681526020016040805190810160405280600b8152602001600080516020612ca88339815191528152505163ffffffff1681526020016040805190810160405280600b8152602001600080516020612ca88339815191528152508152506005600060045481526020019081526020016000206000820151816000015560208201518160010160006101000a81548167ffffffffffffffff021916908367ffffffffffffffff160217905550604082015181600201556060820151816003015560808201518160040160006101000a8154816bffffffffffffffffffffffff021916908360a060020a9004021790555060a082015181600401600c6101000a8154816bffffffffffffffffffffffff021916908360a060020a9004021790555060c08201518160050160006101000a8154816bffffffffffffffffffffffff021916908360a060020a9004021790555060e082015181600501600c6101000a81548163ffffffff021916908363ffffffff1602179055506101008201518160060190805190602001906115d9929190612b9a565b50506004805460019081019091556000948552600a6020526040909420805460ff1916909417909355505050565b60015481565b60076020526000908152604090205460ff1681565b600060405160200180807f4336374300000000000000000000000000000000000000000000000000000000815250600401905060405160208183030381529060405280519060200120826040516020018082805190602001908083835b6020831061169e5780518252601f19909201916020918201910161167f565b6001836020036101000a03801982511681845116808217855250505050505090500191505060405160208183030381529060405280519060200120149050919050565b600b6020526000908152604090205481565b600a6020526000908152604090205460ff1681565b60405160200180807f4336374300000000000000000000000000000000000000000000000000000000815250600401905060405160208183030381529060405280519060200120816040516020018082805190602001908083835b602083106117825780518252601f199092019160209182019101611763565b6001836020036101000a03801982511681845116808217855250505050505090500191505060405160208183030381529060405280519060200120141515611814576040805160e560020a62461bcd02815260206004820152601260248201527f3e20496e76616c69642070617373776f72640000000000000000000000000000604482015290519081900360640190fd5b60005b835181101561197c57600a6000858381518110151561183257fe5b602090810290910181015182528101919091526040016000205460ff16156118ca576040805160e560020a62461bcd02815260206004820152602e60248201527f3e20417474656d7074696e6720746f20616464206974656d207468617420686160448201527f73206265656e2072656d6f766564000000000000000000000000000000000000606482015290519081900360840190fd5b6007600085838151811015156118dc57fe5b602090810290910181015182528101919091526040016000205460ff1615611974576040805160e560020a62461bcd02815260206004820152602160248201527f417474656d7074696e6720746f20616464206974656d2074686174206578697360448201527f7400000000000000000000000000000000000000000000000000000000000000606482015290519081900360840190fd5b600101611817565b5060005b8351811015611ec75760076000858381518110151561199b57fe5b602090810290910181015182528101919091526040016000205460ff161515611ebf5761012060405190810160405280600454600014611ada57600480546000199081016000908152600560208181526040928390208351610120810185528154815260018281015467ffffffffffffffff1682850152600280840154838801526003840154606084015297830154600160a060020a031960a060020a80830282166080860152606060020a928390048102821660a0860152968501549687021660c084015263ffffffff95049490941660e08201526006820180548651601f9682161561010090810290990190911698909804948501849004840288018401909552838752611ad59690959194918601939092830182828015610c365780601f10610c0b57610100808354040283529160200191610c36565b611add565b60005b81526020014267ffffffffffffffff1681526020018681526020018583815181101515611b0657fe5b60209081029190910181015182527f434845434b4544494e000000000000000000000000000000000000000000000082820152600160a060020a031986166040808401919091526000606080850182905282518084018452600a8082527f4974656d206164646564000000000000000000000000000000000000000000009186018290526080808801829052855180870187529182528187019290925260a096870152600480548452600580875293859020885181558887015160018201805467ffffffffffffffff191667ffffffffffffffff9092169190911790559488015160028601559187015160038501558601519083018054958701516bffffffffffffffffffffffff1996871660a060020a938490041777ffffffffffffffffffffffff0000000000000000000000001916606060020a9184900482021790915560c0870151928401805460e0890151971692909304919091176fffffffff000000000000000000000000191663ffffffff90951602939093179092556101008301518051611c9a9260068501920190612b9a565b50506004805460019081019091558551909150600790600090879085908110611cbf57fe5b90602001906020020151815260200190815260200160002060006101000a81548160ff0219169083151502179055506001600960008684815181101515611d0257fe5b90602001906020020151815260200190815260200160002060006101000a81548160ff0219169083151502179055506000600a60008684815181101515611d4557fe5b90602001906020020151815260200190815260200160002060006101000a81548160ff021916908315150217905550600560006004548152602001908152602001600020600860008684815181101515611d9b57fe5b6020908102909101810151825281019190915260400160002081548155600180830154818301805467ffffffffffffffff191667ffffffffffffffff909216919091179055600280840154818401556003808501549084015560048085018054918501805460a060020a9384028490046bffffffffffffffffffffffff19918216178083559254606060020a908190048502859004810277ffffffffffffffffffffffff0000000000000000000000001990941693909317909155600580880180549188018054928602959095049190921617808455905463ffffffff90839004169091026fffffffff0000000000000000000000001990911617905560068085018054611ebb9492860193919281161561010002600019011604612c18565b5050505b600101611980565b5050505050565b600054600160a060020a031681565b60008281526007602052604090205460ff161515611f45576040805160e560020a62461bcd02815260206004820152601660248201527f4974656d20494420646f6573206e6f7420657869737400000000000000000000604482015290519081900360640190fd5b60026000826040516020018082805190602001908083835b60208310611f7c5780518252601f199092019160209182019101611f5d565b6001836020036101000a03801982511681845116808217855250505050505090500191505060405160208183030381529060405280519060200120815260200190815260200160002060009054906101000a900460ff161515612029576040805160e560020a62461bcd02815260206004820152601060248201527f496e76616c69642070617373776f726400000000000000000000000000000000604482015290519081900360640190fd5b60008281526009602052604090205460ff16156120b5576040805160e560020a62461bcd028152602060048201526024808201527f4974656d20697320616c726561647920696e206120434845434b4544494e207360448201527f7461746500000000000000000000000000000000000000000000000000000000606482015290519081900360840190fd5b6000828152600a602052604090205460ff161561211c576040805160e560020a62461bcd02815260206004820152601d60248201527f4974656d2068617320616c7265616479206265656e2072656d6f766564000000604482015290519081900360640190fd5b6101206040519081016040528060045460001461223857600480546000199081016000908152600560208181526040928390208351610120810185528154815260018281015467ffffffffffffffff1682850152600280840154838801526003840154606084015297830154600160a060020a031960a060020a80830282166080860152606060020a928390048102821660a0860152968501549687021660c084015263ffffffff95049490941660e08201526006820180548651601f96821615610100908102909901909116989098049485018490048402880184019095528387526122339690959194918601939092830182828015610c365780601f10610c0b57610100808354040283529160200191610c36565b61223b565b60005b81526020014267ffffffffffffffff168152602001600860008581526020019081526020016000206002015481526020018381526020017f434845434b4544494e0000000000000000000000000000000000000000000000600160a060020a031916815260200160086000858152602001908152602001600020600401600c9054906101000a900460a060020a02600160a060020a03191681526020016008600085815260200190815260200160002060050160009054906101000a900460a060020a02600160a060020a03191681526020016040805190810160405280600b8152602001600080516020612ca88339815191528152505163ffffffff1681526020016040805190810160405280600b8152602001600080516020612ca88339815191528152508152506005600060045481526020019081526020016000206000820151816000015560208201518160010160006101000a81548167ffffffffffffffff021916908367ffffffffffffffff160217905550604082015181600201556060820151816003015560808201518160040160006101000a8154816bffffffffffffffffffffffff021916908360a060020a9004021790555060a082015181600401600c6101000a8154816bffffffffffffffffffffffff021916908360a060020a9004021790555060c08201518160050160006101000a8154816bffffffffffffffffffffffff021916908360a060020a9004021790555060e082015181600501600c6101000a81548163ffffffff021916908363ffffffff16021790555061010082015181600601908051906020019061249b929190612b9a565b5050600480546001908101909155600093845260096020526040909320805460ff19169093179092555050565b60066020526000908152604090205460ff1681565b6004541561255b576040805160e560020a62461bcd02815260206004820152602960248201527f426c6f636b636861696e2066696c6520666f756e64207769746820494e49544960448201527f414c20626c6f636b2e0000000000000000000000000000000000000000000000606482015290519081900360840190fd5b604080516101208101825260008082526020808301828152838501838152606085018481527f494e495449414c000000000000000000000000000000000000000000000000006080870190815260a0870186815260c08801878152600e60e08a019081528a51808c018c52600d81527f496e697469616c20626c6f636b00000000000000000000000000000000000000818a01526101008b01908152600480548b526005808b529c909a208b518155975160018901805467ffffffffffffffff191667ffffffffffffffff90921691909117905595516002880155935160038701559151968501805491516bffffffffffffffffffffffff1992831660a060020a998a90041777ffffffffffffffffffffffff0000000000000000000000001916606060020a918a90048202179091559151988501805493519390911696909804959095176fffffffff000000000000000000000000191663ffffffff90911690940293909317909455905180519293926126dc9260068501920190612b9a565b505060048054600101905550565b600060026000836040516020018082805190602001908083835b602083106127235780518252601f199092019160209182019101612704565b51815160209384036101000a60001901801990921691161790526040805192909401828103601f1901835284528151918101919091208652850195909552929092016000205460ff1695945050505050565b60096020526000908152604090205460ff1681565b600560208181526000928352604092839020805460018083015460028085015460038601546004870154988701546006880180548c516101009882161598909802600019011694909404601f81018a90048a0287018a01909b528a8652959967ffffffffffffffff909416989197909660a060020a80840297606060020a948590048202979181029694900463ffffffff169491939092830182828015610fba5780601f10610f8f57610100808354040283529160200191610fba565b6000600260045411151561285d57506001612998565b60025b6004548110156129925760001981810160009081526005602081815260408084208151610120810183528154815260018083015467ffffffffffffffff16828601526002808401548386015260038401546060840152600484015460a060020a808202600160a060020a03199081166080870152606060020a928390048202811660a08701529886015490810290981660c085015290960463ffffffff1660e08301526006830180548551610100938216158402909a011696909604601f81018690048602890186019094528388529596612966969195929491860193909291830182828015610c365780601f10610c0b57610100808354040283529160200191610c36565b600083815260056020526040902054909150811461298957600092505050612998565b50600101612860565b50600190505b90565b600054600160a060020a03163314612a23576040805160e560020a62461bcd02815260206004820152603360248201527f546869732066756e6374696f6e206973207265737472696374656420746f207460448201527f686520636f6e74726163742773206f776e657200000000000000000000000000606482015290519081900360840190fd5b600155565b6000816000015182602001518360400151846060015185608001518660a001518760c001518860e00151896101000151604051602001808a81526020018967ffffffffffffffff1667ffffffffffffffff16780100000000000000000000000000000000000000000000000002815260080188815260200187815260200186600160a060020a031916600160a060020a0319168152600c0185600160a060020a031916600160a060020a0319168152600c0184600160a060020a031916600160a060020a0319168152600c018363ffffffff1663ffffffff167c010000000000000000000000000000000000000000000000000000000002815260040182805190602001908083835b60208310612b505780518252601f199092019160209182019101612b31565b6001836020036101000a0380198251168184511680821785525050505050509050019950505050505050505050604051602081830303815290604052805190602001209050919050565b828054600181600116156101000203166002900490600052602060002090601f016020900481019282601f10612bdb57805160ff1916838001178555612c08565b82800160010185558215612c08579182015b82811115612c08578251825591602001919060010190612bed565b50612c14929150612c8d565b5090565b828054600181600116156101000203166002900490600052602060002090601f016020900481019282601f10612c515780548555612c08565b82800160010185558215612c0857600052602060002091601f016020900482015b82811115612c08578254825591600101919060010190612c72565b61299891905b80821115612c145760008155600101612c9356fe436865636b6564206f7574000000000000000000000000000000000000000000a165627a7a72305820addcf37ae11f6a4285d5bd984c3142fe652beaef6f13b26bf4511c528a02fd380029",
  "source": "// SPDX-License-Identifier: MIT\npragma solidity >=0.4.21 <0.6.0;\n\ncontract Migrations {\n  address public owner = msg.sender;\n  uint public last_completed_migration;\n\n  modifier restricted() {\n    require(\n      msg.sender == owner,\n      \"This function is restricted to the contract's owner\"\n    );\n    _;\n  }\n\n  function setCompleted(uint completed) public restricted {\n    last_completed_migration = completed;\n  }\n  struct Block {\n        bytes32 previousHash;\n        uint64 timeStamp;\n        bytes32 caseID;\n        bytes32 itemID;\n        bytes12 state;\n        bytes12 creator;\n        bytes12 owner; \n        uint32 length;\n        string data;\n    }\n\n\n    event LogString(bytes32 message);\n    mapping(bytes32 => bool) private validPasswordHashes;\n    mapping(bytes12 => bool) private validReasons;\n\n    uint public blockCount = 0;\n    mapping(uint => Block) public blocks;\n    \n    mapping(bytes32 => bool) public caseIDExists;\n    mapping(bytes32 => bool) public itemIDExists;\n    mapping(bytes32 => Block) public itemList;\n    mapping(bytes32 => bool) public checkedIn;\n    mapping(bytes32 => bool) public isRemoved;\n    mapping(uint => bytes32) public itemName;\n\n    constructor() public{\n        // Initialize the mapping with valid password hashes\n        validPasswordHashes[keccak256(abi.encodePacked(\"L76L\"))] = true;\n        validPasswordHashes[keccak256(abi.encodePacked(\"P80P\"))] = true;\n        validPasswordHashes[keccak256(abi.encodePacked(\"A65A\"))] = true;\n        validPasswordHashes[keccak256(abi.encodePacked(\"E69E\"))] = true;\n        validPasswordHashes[keccak256(abi.encodePacked(\"C67C\"))] = true;\n        validReasons[bytes12(\"DISPOSED\")] = true; validReasons[bytes12(\"DESTROYED\")] = true;\n        validReasons[bytes12(\"RELEASED\")] = true;\n    }\n    function init() public{\n      require(blockCount == 0, \"Blockchain file found with INITIAL block.\");\n      blocks[blockCount] = Block(bytes32(0),0,bytes32(0),bytes32(0),\"INITIAL\",bytes12(0),bytes12(0),14,\"Initial block\" );\n      blockCount++;    \n    }\n    function validPassword(string memory password) public pure returns (bool) {\n        return keccak256(abi.encodePacked(password)) == keccak256(abi.encodePacked(\"C67C\"));\n    }\n    function validPasswords(string memory password) public view returns (bool) {\n        return validPasswordHashes[keccak256(abi.encodePacked(password))];\n    }\n    function getBlockHash(Block memory blockData) internal pure returns (bytes32) {\n    return keccak256(\n        abi.encodePacked(\n            blockData.previousHash,\n            blockData.timeStamp,\n            blockData.caseID,\n            blockData.itemID,\n            blockData.state,\n            blockData.creator,\n            blockData.owner,\n            blockData.length,\n            blockData.data\n        )\n    );\n  }\n    function add(bytes32 case_id, bytes32[] memory item_ids, bytes12 creator, string memory password) public {\n        //require(!caseIDExists[case_id], \"> Case ID already exists!\");\n        require(keccak256(abi.encodePacked(password)) == keccak256(abi.encodePacked(\"C67C\")), \"> Invalid password\");\n        for (uint i = 0; i < item_ids.length; i++) {\n          require(!isRemoved[item_ids[i]], \"> Attempting to add item that has been removed\");\n          require(!itemIDExists[item_ids[i]], \"Attempting to add item that exist\");\n        }\n        for (uint i = 0; i < item_ids.length; i++) {\n          if(!itemIDExists[item_ids[i]]){\n            blocks[blockCount] = Block(\n                 blockCount == 0 ? bytes32(0) : getBlockHash(blocks[blockCount - 1]),\n                 uint64(block.timestamp),\n                 case_id,\n                 item_ids[i],\n                 \"CHECKEDIN\",\n                 creator,\n                 bytes12(0), // Set the owner to a default value for now\n                 uint32(bytes(\"Item added\").length),\n                 \"Item added\" // Placeholder data\n            );\n            blockCount++;\n            itemIDExists[item_ids[i]] = true; \n            checkedIn[item_ids[i]] = true;\n            isRemoved[item_ids[i]] = false;\n            itemList[item_ids[i]] = blocks[blockCount];\n          }\n        }\n        //caseIDExists[case_id] = true;\n  }\n  function checkout(bytes32 itemID, string memory password) public {\n      require(itemIDExists[itemID], \"Item ID does not exist\"); \n      require(validPasswordHashes[keccak256(abi.encodePacked(password))], \"Invalid password\");\n      require(checkedIn[itemID], \"Item is not in a CHECKEDIN state\");\n      require(!isRemoved[itemID], \"Item has already been removed\");\n\n      // Create a new block for the checkout action\n      blocks[blockCount] = Block({\n          previousHash: blockCount == 0 ? bytes32(0) : getBlockHash(blocks[blockCount - 1]),\n          timeStamp: uint64(block.timestamp),\n          caseID: itemList[itemID].caseID, // Reference the associated case ID\n          itemID: itemID,\n          state: \"CHECKEDOUT\",\n          creator: itemList[itemID].creator, // Actor performing the checkout\n          owner: itemList[itemID].owner, // Retain the current owner\n          length: uint32(bytes(\"Checked out\").length),\n          data: \"Checked out\" // Description of the action\n      });\n      blockCount++;\n      checkedIn[itemID] = false;\n  }\n  function checkin(bytes32 itemID, string memory password) public {\n      require(itemIDExists[itemID], \"Item ID does not exist\");\n      require(validPasswordHashes[keccak256(abi.encodePacked(password))], \"Invalid password\");\n      require(!checkedIn[itemID], \"Item is already in a CHECKEDIN state\");\n      require(!isRemoved[itemID], \"Item has already been removed\");\n\n      // Create a new block for the checkout action\n      blocks[blockCount] = Block({\n          previousHash: blockCount == 0 ? bytes32(0) : getBlockHash(blocks[blockCount - 1]),\n          timeStamp: uint64(block.timestamp),\n          caseID: itemList[itemID].caseID, // Reference the associated case ID\n          itemID: itemID,\n          state: \"CHECKEDIN\",\n          creator:itemList[itemID].creator, // Actor performing the checkout\n          owner: itemList[itemID].owner, // Retain the current owner\n          length: uint32(bytes(\"Checked out\").length),\n          data: \"Checked out\" // Description of the action\n      });\n      blockCount++;\n      checkedIn[itemID] = true; \n  }\n  function remove(bytes32 itemID, bytes12 state, string memory password) public{\n      require(itemIDExists[itemID], \"Item ID does not exist\");\n      require(keccak256(abi.encodePacked(password)) == keccak256(abi.encodePacked(\"C67C\")), \"Invalid password\");\n      require(checkedIn[itemID], \"Item is not CHECKIN\");\n      require(validReasons[state], \"Reason is not valid\");\n      require(!isRemoved[itemID], \"Item has already been removed\");\n  \n      blocks[blockCount] = Block({\n          previousHash: blockCount == 0 ? bytes32(0) : getBlockHash(blocks[blockCount - 1]),\n          timeStamp: uint64(block.timestamp),\n          caseID: itemList[itemID].caseID, // Reference the associated case ID\n          itemID: itemID,\n          state: state,\n          creator:itemList[itemID].creator, // Actor performing the checkout\n          owner: itemList[itemID].owner, // Retain the current owner\n          length: uint32(bytes(\"Checked out\").length),\n          data: \"Checked out\" // Description of the action\n      });\n      blockCount++;\n      isRemoved[itemID] = true;\n  }\nfunction verify() public view returns (bool) {\n    // If there are no blocks or only the initial block, the chain is valid\n    if (blockCount <= 2) {\n        return (true);\n    }\n\n    for (uint i = 2; i < blockCount; i++) {\n        // Calculate the hash of the previous block\n        bytes32 calculatedPreviousHash = getBlockHash(blocks[i - 1]);\n        if (blocks[i].previousHash != calculatedPreviousHash) {\n            return (false);\n        }\n    }\n\n    return (true);\n}\n\n}\n",
  "sourcePath": "C:/Users/mh916/OneDrive/Desktop/CSE469Final/contracts/Migrations.sol",
  "compiler": {
    "name": "solc",
    "version": "0.5.0+commit.1d4f565a.Emscripten.clang"
  },
  "schemaVersion": "3.0.1",
  "updatedAt": "2024-12-06T04:01:31.223Z",
  "devdoc": {
    "methods": {}
  },
  "userdoc": {
    "methods": {}
  }
}